:02000000A12C31
:10000600103083120313FD00FD0B072800000800C3
:0400160000000800DE
:10001A00083083120313FC002330FD00FD0B132864
:06002A00FC0B1328080086
:1000300083120313C01B1E2886111F288615401B20
:100040002328061124280615C01A282886102928D6
:100050008614401A2D2806102E280614B4183228AB
:1000600006163328061286160B208612C0193A2867
:1000700086113B28861540193F2806114028061591
:10008000C0184428861045288614401849280610B0
:100090004A280614B4184E2806164F28061286164B
:1000A0000B208612B41C56280D2057280320080068
:1000B00083120313F8010830FC00700DF80D74086A
:1000C000F80203186528F8070310F00DFC0B5D28F3
:0200D000080026
:1000D20083120313B4103F08C0001820B4140800A0
:1000E200073084000008000883120313F000F011A7
:0600F20070088000080008
:1000F800073084000008000883120313F000701210
:06010800700880000800F1
:10010E009928803083120313B900AC28C030B9008F
:10011E00AC289430B900AC28D430B900AC2880306B
:10012E00B900AC28831203133908013A0319882841
:10013E003908023A03198D283908033A0319902811
:10014E003908043A0319932896283A03F00039081F
:10015E00F0077008B9007008C0001820B410BC0178
:10016E003C083B07840000080319C5283C083B07E0
:10017E0084000008BF006920BC0AB728B414080028
:10018E0083160313861206120610861006118611A8
:10019E0083128612061286110611861006100D2085
:1001AE000D200D208614061486160B2086120D20A7
:1001BE0086160B2086120D2086160B2086120D2019
:1001CE00061086160B2086120D2086160B20861220
:1001DE008610861586160B2086120D2086110614A3
:1001EE0086160B208612061086160B2086120D2000
:1001FE0086160B208612061486160B2086120D20EC
:10020E00061086160B208612861506158614061401
:0C021E0086160B2086120D20B414080078
:10022A007C20831607120B200B20871583123410AB
:10023A0087192329341C222923291D290B200B2045
:10024A000B200B200B200B200B200B2083160716EC
:06025A000B200B20080040
:0E0260008312031330088A002F088200080062
:10026E004929803083120313B9005C29C030B900CC
:10027E005C299430B9005C29D430B9005C298030F7
:10028E00B9005C29831203133908013A031938297E
:10029E003908023A03193D293908033A031940294E
:1002AE003908043A0319432946293A03F00039085C
:1002BE00F0077008B900B4147008C0001820B4100C
:0A02CE003B08C0001820B41408001B
:1002D8008316031387150716831234108719782994
:0A02E800341C7729782972290800D8
:1002F2008316031307160B200B2087150B200B20E8
:100302007C20831607120B200B2071208316871185
:020312000800E1
:10031400013083120313BC000030BD008030BA00EA
:10032400BB013A083B040319C0290B200B200B2006
:100334000B207120831687110B200B2083123A089F
:100344003905F00000303B05F10070087104031911
:10035400AE2983160716B1297C20831607120B20B9
:100364000B208715831234108719BC29341CBB2930
:10037400BC29B629BB0CBA0CBB139329BC01BD0123
:100384000B200B207120831687110B200B200716DE
:100394000B200B200B200B20871583123410871998
:1003A400D729341CD629D729D129BC01BD010B205A
:1003B4000B20071EDE293C140B200B200B200B20E6
:1003C4000B200B200B200B200B200B200B200B20D1
:1003D4000B200B200B200B207120831687117C200F
:0C03E4008316071283123C08F00008008A
:1003F00083120313BA013908093C03181A2A0A3078
:10040000F4003908F00058207008BA007008BA00EB
:10041000BA0D3A10BA0D3A10BA0D3A10BA0D3A1098
:100420000A30F4003908F00058207808F00070080D
:0E043000BA041C2A3908BA003A08F000080085
:10043E0083120313BB01BC018030BD000030BE002F
:10044E003D083E0403194A2A0B200B20831607167B
:10045E000B200B2087158312341087193A2A341C6F
:10046E00392A3A2A342A071E402A3D08BB043E0880
:10047E00BC040B200B207120831687118312BE0C37
:10048E00BD0CBE13272A831607160B200B208312D2
:10049E0039083A040319562A7C208316071283164C
:1004AE000B200B208715831234108719622A341CF7
:1004BE00612A622A5C2A0B200B2071208316871179
:1004CE000B200B207C208316071283123B08F000B2
:0204DE00080014
:1004E000831203137008F100F0010830FC0071085A
:1004F000F40C03187F2AFC0B782AF1010034031056
:10050000842AF40C0318F107F10CF00CFC0B812A7F
:020510000800E1
:100512007921D0308312B9008A21B9018A21792147
:10052200D1308312B9008A210130B9000030BA00FB
:100532001F227008B8000130B9000030BA001F2233
:100542007008B7000130B9000030BA001F227008ED
:10055200B6000130B9000030BA001F227008B300A3
:100562000130B9000030BA001F227008B200013019
:10057200B9000030BA001F227008B100B901BA01F7
:0A0582001F227008B50015210800C3
:10058C00F030831203133805F2007208F000F00CFF
:10059C00F013F00CF013F00CF013F00CF0130A3015
:1005AC00F40070220F303805F10071087007B800A4
:1005BC00F0303705F2007208F000F00CF013F00C7C
:1005CC00F013F00CF013F00CF0130A30F40070225E
:1005DC000F303705F10071087007B700F0303605A1
:1005EC00F2007208F000F00CF013F00CF013F00CA9
:1005FC00F013F00CF0130A30F40070220F303605B3
:10060C00F10071087007B60030303305F200720843
:10061C00F000F00CF013F00CF013F00CF013F00CE5
:10062C00F0130A30F40070220F303305F10071081A
:10063C007007B300F0303205F2007208F000F00CD5
:10064C00F013F00CF013F00CF013F00CF0130A3064
:10065C00F40070220F303205F10071087007B200FF
:10066C0010303105F2007208F000F00CF013F00CB1
:10067C00F013F00CF013F00CF0130A30F4007022AD
:10068C000F303105F10071087007B100F0303505FD
:10069C00F2007208F000F00CF013F00CF013F00CF8
:1006AC00F013F00CF0130A30F40070220F30350503
:0A06BC00F10071087007B500080096
:1006C60083120313B8013B30B7001730B600013070
:1006D600B3001B30B2000B30B1001130B5007921E8
:1006E600D0308312B9008A21B9018A213808B900AD
:1006F600F8217008B9008A213708B900F821700876
:10070600B9008A213608B900F8217008B9008A2193
:100716003308B900F8217008B9008A213208B900F7
:10072600F8217008B9008A213108B900F82170084B
:10073600B9008A213508B900F8217008B9008A2164
:08074600B9018A211521080008
:10074E00831603138601FF3083128600FF30831653
:10075E0086006C21C7200130C00018200C30C0006C
:10076E0018200130B9000130BA002930BB008720B3
:10077E000130B9000830BA002E30BB0037210130ED
:10078E00B9000B30BA002E30BB0037210230B90051
:10079E000130BA002330BB0087200230B900083088
:1007AE00BA003A30BB0037210230B9000B30BA0024
:1007BE003A30BB0037210130B9000C30BA0020307E
:0607CE00BB0087200800BB
:1007D400013083120313B9000630BA000A30F40062
:1007E4003208F000582030307007BB003721013048
:1007F400B9000730BA000A30F4003208F00058207B
:100804007808F00030307007BB0037210130B900A0
:100814000930BA000A30F4003108F00058203030B2
:100824007007BB0037210130B9000A30BA000A3022
:10083400F4003108F00058207808F00030307007D8
:10084400BB0037210130B9000E30BA000A30F40081
:100854003508F000582030307007BB0037210130D4
:10086400B9000F30BA000A30F4003508F0005820FF
:100874007808F00030307007BB0037210230B9002F
:100884000630BA000A30F4003608F0005820303040
:100894007007BB0037210230B9000730BA000A30B4
:1008A400F4003608F00058207808F0003030700763
:1008B400BB0037210230B9000930BA000A30F40015
:1008C4003708F000582030307007BB003721023061
:1008D400B9000A30BA000A30F4003708F000582092
:1008E4007808F00030307007BB0037210230B900BF
:1008F4000C30BA000A30F4003808F00058203030C8
:100904007007BB0037210230B9000D30BA000A303D
:10091400F4003808F00058207808F00030307007F0
:06092400BB0037210800B2
:10092A0030218A110A128000840AAF0A0319B00A18
:08093A00F003031D952C0800D9
:10094200323083120313A0003030A100A2015430D0
:10095200A3006930A4006D30A5006530A6003A30CE
:10096200A700A8014430A9006130AA007430AB008E
:100972006530AC003A30AD00AE01A7236323892273
:08098200C622EA23C02CC42C9C
:02400E004A2F37
:00000001FF
