:02000000E52AEF
:10000800FF00030E8301B5000A08B6008A017008D4
:10001800A1000B1D1628AE0A2E08323A031D162819
:10002800AE0152220B112108F00036088A00350E65
:080038008300FF0E7F0E09009A
:0E004000F201F101F001F801F30100300800B7
:10004E007B15FB1F31280130F300F201F101F001A5
:08005E00FA0DF20CFF3008005E
:08006600FA1FF213003008003C
:10006E00FB14FB1F4128FF30F300F200F100F000FB
:08007E00FA0DF20CFF3008003E
:06008600FB15FF3008002D
:10008C007B14FB1F5128F201FA1FFF30F200F10024
:0A009C00F000FA0DF20CFF3008002E
:1000A600A0017208031D68287108F2007008F100AB
:1000B600F001A0157208031D68287108F200F1010D
:1000C600A01120167208031976282008F302031DD2
:1000D600031C7A280310F21B7E28F00DF10DF20D99
:1000E600F30B6E287A280130FC002020812802308C
:0E00F600FC00272081280430FC003320080085
:10010400831203137008F8007108F000F101F20182
:10011400F301FB01FC019630F300FA01F01F98286B
:10012400F809F009F80A0319F00AFA177008F1003F
:0C0134007808F000F801F20153200800E8
:1001400083127408003A031DBA287508003A031D8B
:10015000BA287608003A031DBA287708003A031D2A
:10016000BA28FF30F000FF30F1007F30F200FF309E
:10017000F3005529831203137708031949297308DB
:1001800003194C29720876068039FA00F217F6171F
:10019000A0017208F8007108FC007008FD007408E6
:1001A000FD027508031C750FFC027608031C760F10
:1001B000F802F801FC01FD01031CE5280310F20C14
:1001C000F10CF00CF80C0130A0007708F302031CCE
:1001D000EF287E302007F30703184F29F4287E30DC
:1001E0002007F307031C52291830FA07FD0DFC0DF8
:1001F000F80DF00DF10DF20DA00D7408F002750868
:10020000031C750FF1027608031C760FF202760DBF
:10021000A004201C0D297D1418297408F007750806
:100220000318750FF10776080318760AF2077D1098
:10023000FA031F307A05031DF6287B1B7D1C3F291E
:100240000310F00DF10DF20DA00D7408F002750809
:10025000031C750FF1027608031C760FF202760D6F
:1002600020040139FD070318FC0A0319F80A031DCD
:100270003F29F80CFC0CFD0CF30A03194F29FA1F57
:10028000F8137808F2007C08F1007D08F0000030D7
:1002900054290130432054290230202054290430AD
:0C02A000372054290830272000000800F7
:1002AC0083120313FB01FC01FA017308031995294E
:1002BC00F2178E30F302F31B66290319662998296D
:1002CC00F309F30A08307302031C7B29F300F10DC8
:1002DC007208F100F20108307302031C7B29F10D46
:1002EC00F1017308031D0310832973080319832973
:1002FC000310F20CF10CF30B7E297B1B711C8D2966
:10030C00031C8D29F10A0319F20AF21BA429FA1F06
:10031C00A729F209F109F10A0319F20AA729F20136
:10032C00F101A7297B14FB1FAA29F201FA1FAA29A4
:10033C00FF30F200F100FA0DF20CAA290130FC009A
:10034C00AC290030FC00AC29FF30FC00FC08031980
:0E035C00B02946207108F0007208F100080078
:10036A00831203137008F100F0010830FC007108D1
:10037A00F40C0318C429FC0BBD29F1010034031045
:10038A00C929F40C0318F107F10CF00CFC0BC6296F
:02039A00080059
:10039C0083120313F801F9011030FC00710DF80DF4
:1003AC00F90D7408F8027508031C750FF90203188F
:1003BC00E6297408F80775080318750FF907031078
:0A03CC00F00DF10DFC0BD429080020
:1003D60083120313FB017308031D77080319422ACE
:1003E60072087606FA007708F3077E30031CFF29A9
:1003F600F3020318452A022AF302031C482A72084C
:10040600F8007108FC007008FD00F817F6170310D5
:10041600F201F101F0011830A0007D1C1C2A7408BD
:10042600F00775080318750FF10776080318760F9D
:10043600F207F20CF10CF00CF80CFC0CFD0C03109E
:10044600A00B102AF21B2C2AF80DF00DF10DF20D5F
:10045600F3037B1B701C3E2AF81F3E2AF00A031981
:10046600F10A0319F20A031D3E2AF20CF10CF00CF4
:10047600F30A0319452AFA1FF21300304A2A0130FB
:1004860020204A2A023037204A2A0430272000003A
:0204960008005C
:0C049800831234088A0033088200080038
:1004A40083121F151F1D572A542A1E08F000080026
:1004B40064308312F0001E08F400B521822000305D
:1004C400F4000030F5002030F6008030F700EB2116
:1004D4000030F4000030F5000030F6008730F700FB
:1004E400A02056217008B9007108BA003908AF007D
:1004F4003A08B0000A30F4000030F5003908F00082
:100504003A08F100CE217008B7007108B800370826
:10051400B1003808B2000A30F4000030F5003908A0
:10052400F0003A08F100CE217808F0007908F100D3
:100534007008A2007108A3003708243E8400000854
:100544008600023085002430FC00E730FD00FD0BFE
:10055400A92AFC0BA92A85012208243E840000084C
:100564008600043085002430FC00E730FD00FD0BDC
:10057400B92AFC0BB92A85019C308600103085000D
:100584001230FC00F330FD00FD0BC62AFC0BC62A1A
:100594008501C630860086171230FC00F330FD005A
:0E05A400FD0BD22AFC0BD22A7F308605080000
:1005B2004C228A110A128000840AB30A0319B40A6F
:0805C200F003031DD92A080013
:1005CA008312A201A301C030A400F930A500A4300F
:1005DA00A600B030A7009930A8009230A900823056
:1005EA00AA00F830AB008030AC009030AD00AE010C
:1005FA00AF01B001B101B20186018501093083164C
:10060A008500860181128111073081058B178B16AF
:10061A0005309F0083121F179F179F111F129F12E9
:0E062A001F140B11522281015A22192B1B2B77
:02400E000A2086
:00000001FF
