:020000000429D1
:0E000600213083120313FD00FD0B07280800B4
:06001400000000000800DE
:10001A000F3083120313FC004730FD00FD0B132839
:0A002A00FC0B132800000000080082
:1000340083120313D61B2028881321288817561BE4
:100044002528081326280817D61A2A2888122B28A8
:100054008816561A2F28081230280816D61934285C
:100064008811352888155619392808113A28081591
:10007400D6183E2888103F2888145618432808109C
:100084004428081406154A18492806154A28061152
:1000940006160A2006124A1C51280D205228032055
:0200A400080052
:0E00A600831203134D088A004C0882000800E4
:1000B4006C28803083120313D3007F28C030D30010
:1000C4007F289430D3007F28D430D3007F28803019
:1000D400D3007F28831203135308013A03195B28C2
:1000E4005308023A031960285308033A0319632892
:1000F4005308043A0319662869285403F000530886
:10010400F0077008D3007008D6001A204A1055086A
:08011400D6001A204A1408006D
:10011C0083120313D101500884000008D200520846
:10012C000319AA284E08D30051084F07D4005108D0
:10013C00500784000008D5005A20D10A51085007F6
:0A014C0084000008D2009528080086
:1001560083160313061206118611881308138812D4
:100166000812881108118810081083120612061149
:10017600861188130813881208128811081188102E
:1001860008100D200D200D208611831606118611EC
:10019600061283124A143030D6001A203030D600A8
:1001A6001A203030D6001A203830D6001A200830EF
:1001B600D6001A200130D6001A200630D6001A20A2
:0801C6000C30D6001A200800DD
:1001CE00063083120313FB001330FC00AD30FD002C
:1001DE00FD0BEF28FC0BEF28FB0BEF2800000000B7
:0201EE00080007
:1001F00053208A110A128000840ACC0A0319CD0AFE
:08020000F003031DF8280800BB
:100208009E21831603178801890183128713881397
:10021800AB200130D6001A200C30D6001A2001304D
:10022800CE000630CF004230D0008E200230CE0003
:100238000630CF003130D0008E201530FB004B3017
:10024800FC00BE30FD00FD0B2729FC0B2729FB0B0A
:10025800272900000130D6001A200130CE000130D5
:10026800CF002030D0008E200230CE000530CF00E5
:100278003930D0008E201530FB004B30FC00BE30EA
:10028800FD00FD0B4529FC0B4529FB0B452900000A
:10029800CB0104304B02031857291C30D6001A2012
:1002A800E720CB0A4D29CB0108304B0203186229FD
:1002B8001830D6001A20E720CB0A5829CB0108307D
:1002C8004B0203186D291C30D6001A20E720CB0AF0
:0602D800632957296E297D
:10033C00203084002A3083120313F0007430CC0078
:08034C000130CD00F82008008B
:1002E8006D3469346B3472346F3445346C3465342E
:1002F8006B34743472346F346E3469346B346134F3
:020308000034BF
:10030A006534783461346D3470346C346534003457
:10031A004534613473347934503449344334353490
:02032A0000349D
:10032C004C34633464343834623469347434003497
:04400E00F22F000786
:00000001FF
