:020000005C2979
:10000600710DF80DF90D7408F8027508031C750FCB
:10001600F902F00DF10D0F30FC00710DF80DF90D20
:100026007408701C1C28F8027508031C750FF90269
:100036002128F80775080318750FF907F00DF10D5B
:10004600FC0B102870182D287408F807750803187B
:08005600750FF9070000080016
:10005E00831203137408003A031D3E287508003AF4
:10006E00031D3E28FF30F0007F30F10097288312E9
:10007E000313FD01F901F80171087004031900342E
:10008E0071087506FA00FA1BFD09FB01F51F5428CD
:10009E00F409F509F40A0319F50AF11F5B28F009B2
:1000AE00F109F00A0319F10A71087504FA00FA1B36
:1000BE00702803207B188328FD1F0034F009F109F6
:1000CE00F00A0319F10AF809F909F80A0319F90AED
:1000DE000034F51F7F28F11B7B287108F90070088A
:1000EE00F800F101F0016328F101F001F00A00348B
:1000FE00F109F009FB0A6028F80A0319F90A7408D5
:10010E007802031D632875087902031D6328F9011F
:10011E00F801F00A0319F10AF11F63280000FF34F9
:02012E000800C7
:0E0130008312031332088A003108820008008F
:10013E0083120313F801F9011030FC00710DF80D54
:10014E00F90D7408F8027508031C750FF9020318EF
:10015E00B7287408F80775080318750FF907031008
:0A016E00F00DF10DFC0BA5280800B0
:10017800E83083120313F4000330F5003508F0006B
:100188003608F1009F200A30F4000030F5002F20D7
:100198007808F0007908F1007008B1006430F400C4
:1001A8000030F5003508F0003608F1009F200A30CD
:1001B800F4000030F5002F207808F0007908F100ED
:1001C8007008B0000A30F4000030F5003508F0007F
:1001D8003608F1009F200A30F4000030F5002F2087
:1001E8007808F0007908F1007008AF000A30F400D0
:1001F8000030F5003508F0003608F1002F207808A7
:0C020800F0007908F1007008AE0008005A
:1002140083120313F1010530710203184F292008DA
:1002240088002E08243E8400000887000730FC0064
:100234007D30FD00FD0B1C29FC0B1C2921088800C6
:100244002F08243E8400000887000730FC007D301E
:10025400FD00FD0B2B29FC0B2B29220888003008FC
:10026400243E8400000887000730FC007D30FD0038
:10027400FD0B3A29FC0B3A29230888003108243E57
:100284008400000887000730FC007D30FD00FD0B72
:0C0294004929FC0B4929F10A0D2908003A
:1002A00098208A110A128000840AB10A0319B20A3E
:0802B000F003031D50290800B2
:1002B800013083120313A0000230A1000430A20011
:1002C8000830A3003F30A4000630A5005B30A6002C
:1002D8004F30A7006630A8006D30A9007D30AA0015
:1002E8000730AB007F30AC006F30AD0083160317CA
:1002F8008801890103138701831287018316880106
:100308008312880103308316860083128601B301A5
:10031800B4013308B5003408B600BC200A218D2981
:02032800942916
:04400E00F22F000786
:00000001FF
