:02000000542A80
:10000800FF00030E8301AE000A08AF008A016400F6
:100018000B1D1028A20A0B112F088A002E0E830030
:06002800FF0E7F0E09002F
:04002E0000000800C6
:10003200943083120313FD00FD0B1D2800000800FD
:0E004200173083120313FD00FD0B2528080064
:100050000E3083120313FD00FD0B2C28000000005E
:02006000080096
:1000620083120313F801F9011030FC00710DF80D31
:10007200F90D7408F8027508031C750FF9020318CC
:1000820049287408F80775080318750FF907031053
:0A009200F00DF10DFC0B37280800FB
:10009C00831203133808F1000130F00071080319C2
:1000AC005B28F00D7010FF3E55287008BC00F0095D
:1000BC007008BB0037088400700880058417BA01EB
:1000CC003A08073C031C80283A08F0003908F10074
:1000DC00700803197528F10CF113FF3E6F283B08CB
:1000EC008005711C7B283C08800421203C0880047E
:0C00FC00BA0A6628841328202820080077
:10010800831203133808F1000130F0007108031955
:100118009128F00D7010FF3E8B287008BA00F00986
:100128003708840070088005841770088005192036
:100138003A088004841321203A080005B9003908D8
:10014800003A013003190030B90019203908F000CD
:0201580008009D
:10015A00831603139C1CB3280000AD2883123708AA
:10016A0083169B008312380883169A009C131C1569
:10017A000B08F0008B1355309D00AA309D009C148B
:0E018A00F01BC9288B13CA288B171C11080004
:10019800831203133808F1000130F00071080319C5
:1001A800D928F00D7010FF3ED3287008BC007009E4
:1001B800BB0037088400BA01B9013908073C031CA1
:1001C80005293B08800584173B08800517203C0853
:1001D8008004172084133C080005F0000319012946
:1001E8003908F1000130F00071080319FF28F00DFB
:1001F8007010FF3EF9287008BA0428202820B90A90
:08020800E1283A08F0000800AB
:1002100083120313370883169B009C131C141A08BF
:04022000F0000800E2
:0E0224008312031321088A00200882000800BC
:10023200643083120313F4000030F5003208F0003A
:100242003308F10031207008B4006430F40000304B
:10025200F5003208F0003308F10031207808F00090
:100262007908F1000A30F4000030F50031207008FE
:10027200B5000A30F4000030F5003208F00033080F
:10028200F10031207808F0007908F1007008B6001A
:100292006A2986010F303405860086167A2986017E
:1002A2000F303505860006177A2986010F3036058C
:1002B200860086177A29A30A0319A40AA80A031931
:1002C200A90AAA0A0319AB0AAC0A0319AD0AA201C8
:1002D2007A292208023A03194A292208033A031901
:1002E20050292208043A031956292208053A03190B
:0402F2005C2908007B
:1002F600831203138518962900302902031D8529C8
:100306000A302802031C9629251078302602031885
:100316008D29A60AB7012608B800AD208312AA01C6
:10032600AB01A801A9010518AF2900302902031D58
:100336009E290A302802031CAF2925107830260290
:100346000318A629A603B7012608B800AD20831214
:10035600AA01AB01A801A9012608A70000302B02BB
:10036600031DB72996302A02031CBC292514AA01AD
:04037600AB010800CF
:10037A0012218A110A128000840AA00A0319A10A0A
:08038A00F003031DBD2908006A
:10039200831603138E1586010330850007308312FE
:1003A2009F0085010330831681008B178B160B117A
:1003B20083128601A201A301A401A801A901AA0135
:0C03C200AB01AC01AD01A5102514080032
:1003CE0083120313B701082170088312A6000800D8
:1003DE00053083120313B7000430B80084200530B3
:1003EE00B7000430B800CC30B9004E200530B7004D
:1003FE000430B8004430B9004E202330FD00FD0B10
:10040E00062A00000530B7000430B80084200530FD
:10041E00B7000430B800CC30B9004E200530B7001C
:10042E000430B800BE30B9004E200530B70004309D
:10043E00B800CC207008B200B3010530B70004300C
:10044E00B800CC207008F500F40132087407F200F1
:10045E0075080318013E3307F3007208B2007308E3
:10046E00B300F31F3E2AA514B209B3093F2AA51003
:10047E003208F0003308F100F10CF00CF113F10C1E
:10048E00F00CF113F10CF00CF113F10CF00CF11364
:0A049E007008B2007108B3000800F6
:1004A800C921E721EF217008B0007108B100B0013F
:1004B800B1011830FC003C30FD00FD0B612AFC0B3B
:1004C800612A251C812A00302402031D6D2A4B3025
:1004D8002302031C7B2AEF217008B0007108B100C9
:1004E800EF217008B0007108B100A301A401300821
:1004F800B2003108B3001921852A2608B200B301D9
:1005080019217B2100302D02031D8C2A32302C0248
:10051800031C9D2A00303102031D942A260830024C
:10052800031C9A2A8515AC01AD019D2A8511AC01E1
:06053800AD01652A9E2AB8
:02400E001C2173
:020000040000FA
:104200002300FF00FF00FF00FF00FF00FF00FF0092
:10421000FF00FF00FF00FF00FF00FF00FF00FF00A6
:10422000FF00FF00FF00FF00FF00FF00FF00FF0096
:10423000FF00FF00FF00FF00FF00FF00FF00FF0086
:10424000FF00FF00FF00FF00FF00FF00FF00FF0076
:10425000FF00FF00FF00FF00FF00FF00FF00FF0066
:10426000FF00FF00FF00FF00FF00FF00FF00FF0056
:10427000FF00FF00FF00FF00FF00FF00FF00FF0046
:10428000FF00FF00FF00FF00FF00FF00FF00FF0036
:10429000FF00FF00FF00FF00FF00FF00FF00FF0026
:1042A000FF00FF00FF00FF00FF00FF00FF00FF0016
:1042B000FF00FF00FF00FF00FF00FF00FF00FF0006
:1042C000FF00FF00FF00FF00FF00FF00FF00FF00F6
:1042D000FF00FF00FF00FF00FF00FF00FF00FF00E6
:1042E000FF00FF00FF00FF00FF00FF00FF00FF00D6
:1042F000FF00FF00FF00FF00FF00FF00FF00FF00C6
:00000001FF

