:020000001F29B6
:100006008312031387142130FD00FD0B0828871087
:0A0016002130FD00FD0B0D2808004D
:100020008312031307140F308605F0302605F00005
:100030007008860403200F3086052608F000F00DB6
:100040007010F00D7010F00D7010F00D7010F03099
:0A005000F005700886040320080084
:0E005A008312031321088A0020088200080088
:100068008312031307100F308605F0302605F000C1
:100078007008860403200F3086052608F000F00D6E
:100088007010F00D7010F00D7010F00D7010F03051
:0A009800F00570088604032008003C
:1000A200831203132408A0002508A1002D208A1121
:1000B2000A12F000700803196B282408A000250812
:1000C200A1002D208A110A12A6001020A40A0319E9
:0600D200A50A51280800F8
:1000D800063083120313F1002408F0007108031995
:1000E8007928F00D7010FF3E73282508F00780303E
:0800F8007004A600342008008A
:1001000083120313A401A5016C202208A400230874
:06011000A50051200800CB
:10011600013083120313A60034200330FC0097300D
:10012600FD00FD0B9428FC0B94280000000008003D
:10013600013083120313A400A5016C202208A40039
:080146002308A5005120080068
:10014E008B203830A2000130A30080202730A2007F
:10015E000130A3009B200630FB001330FC00AD30B5
:10016E00FD00FD0BB828FC0BB828FB0BB8280000CF
:04017E000000080075
:1001820083120313871007103430FC00F130FD0096
:10019200FD0BC928FC0BC928000000000F308605A2
:1001A2003030860403200830FC00C930FD00FD0B0E
:1001B200D828FC0BD828000000000F30860530300C
:1001C200860403206330FD00FD0BE52800000000DB
:1001D2000F3086053030860403200330FC00973050
:1001E200FD00FD0BF228FC0BF228000000000F308E
:1001F2008605861603200330FC009730FD00FD0BB8
:100202000029FC0B0029000000002830A600342041
:100212000C30A60034200130A60034200630A6009F
:04022200342008007C
:100226002D208A110A128000840AA00A0319A10A45
:08023600F003031D1329080069
:10023E008316031386018701C120A72024292629AE
:10024E002A342A34203420344D3445344C3441344D
:10025E0042342D3442344434203420342A342A3467
:02026E0000345A
:100270002A342034483465346C346C346F34203480
:10028000203457346F3472346C34643420342A345C
:02029000003438
:02400E004A2F37
:00000001FF
