:0200000089284D
:0E0006008312031321088A00200882000800DC
:1000140083120313FB01FA01F9018030F800F10C9B
:10002400F00C031C1E287408F90775080318750FD3
:10003400FA070318FB0A0310F01F26287408FA07AE
:1000440075080318750FFB07FB0CFA0CF90CF80C78
:10005400031C11287B08F3007A08F2007908F100E8
:060064007808F00008001E
:0C006A008312031395011712971208006F
:10007600831603130711831212150C309704080018
:1000860003208A110A128000840AA00A0319A10A11
:08009600F003031D43280800DC
:10009E00831603131208013EF000F1010318F10A52
:1000AE0083122308F400F5010A200630F2007008CE
:1000BE00F4007108F500720803196A28F50CF40CA7
:1000CE00F513FF3E63280430F1007408F000710848
:1000DE0003197528F00D7010FF3E6F283030700533
:1000EE00F3007408F0007508F100F10CF00CF11338
:1000FE00F10CF00CF113700895000F309705730892
:04010E00970408004A
:1001120083120313A201C0308316870086010230C6
:1001220083128600121492147C30831692003520BA
:100132003B202208A3004F20071BBC288030A21BB3
:100142007F30F00080307002031DA928FA302202AD
:100152000318BC286830FC00E430FD00FD0BAF281A
:10016200FC0BAF2800000A302207F0007008A20042
:100172007008A3004F20871BD7288030003AF00078
:100182008030220670020318D7286830FC00E43061
:10019200FD00FD0BCA28FC0BCA2800000A3022020F
:1001A200F0007008A2007008A3004F201A30FC0073
:1001B200F830FD00FD0BDB28FC0BDB2800009D283E
:0201C200E12832
:02400E004A2F37
:00000001FF
