:02000000CD2908
:0C000600000000000000000000000800E6
:0E001200533083120313FD00FD0B0D28080070
:10002000243083120313FC00B530FD00FD0B1628AD
:0A003000FC0B162800000000080079
:10003A0083120313F801F9011030FC00710DF80D59
:10004A00F90D7408F8027508031C750FF9020318F4
:10005A0035287408F80775080318750FF90703108F
:0A006A00F00DF10DFC0B2328080037
:1000740083120313EF1B40288611412886156F1B3A
:100084004528061146280615EF1A4A2886104B28DB
:1000940086146F1A4F280610502806144A1854283C
:1000A400061655280612861603208612EF195C28B8
:1000B40086115D2886156F196128061162280615B8
:1000C400EF1866288610672886146F186B280610A8
:1000D4006C2806144A18702806167128061286160B
:1000E400032086124A1C7828102079280920080049
:1000F400831203134A106A08EF003A204A140800D6
:0E010400831203134C088A004B088200080087
:1001120083120313ED0105306D02031897286D0851
:100122006C07840020308000ED0A8C286D086C0773
:1001320084008001ED036D086C07EE000A30F400C4
:10014200F5016A08F0006B08F1001D207808F00044
:100152007908F1003030F0076E08840070088000E2
:100162000A30F400F5016A08F0006B08F1001D2066
:100172007008EA007108EB0000307106031DC32805
:1001820000307006031DC628C828ED039C2808000D
:1001920083120313E601E7016108E8006208E9003F
:1001A20080306206F00080307002031DDA280030D1
:1001B20061020318E8280130E6000030E700610818
:1001C200003CE8006208031C013EE901E9026808FC
:1001D200EA006908EB006308EC0089200630E400BD
:1001E2000030E5006508003C031DF9286408003C66
:1001F2000318142964086307F20001306402F00056
:100202000030031C013E6502F100700863078400A0
:100212000008F00072088400700880000130E402D7
:10022200031CE503F328630884002030800066087D
:10023200670403193229E401E501640863078400B5
:100242000008203A031D2929E40A0319E50A1E2998
:100252000130E402031CE5036408630784002D30C7
:040262008000080010
:100266004529803083120313E1005829C030E1008C
:1002760058299430E1005829D430E10058298030BB
:10028600E1005829831203136108013A031934293E
:100296006108023A031939296108033A03193C290E
:1002A6006108043A03193F2942296203F0006108F4
:1002B600F0077008E1007008EF003A204A10E401E8
:1002C600640863078400000803197129640863073A
:1002D60084000008EA007A20E40A63294A14080028
:1002E60082208A110A128000840ACB0A0319CC0ADA
:0802F600F003031D7329080049
:1002FE008316031386120612061086100611861137
:10030E008312861206128611061186100610102010
:10031E001020102086140614861603208612102034
:10032E0086160320861210208616032086121020B1
:10033E0006108616032086121020861603208612BB
:10034E008610861586160320861210208611061436
:10035E00861603208612061086160320861210209B
:10036E008616032086120614861603208612102087
:10037E000610861603208612861506158614061498
:0C038E0086160320861210204A14080076
:10039A008E2283120313DD01DE01DF01E001FF304B
:1003AA0083168700831287017F210C30EF003A20E1
:1003BA000130E1000430E2003F30E3003321023033
:1003CA00E1000230E2002F30E30033211A30FB0053
:1003DA005E30FC006E30FD00FD0BF129FC0BF129AB
:1003EA00FB0BF12900000130EF003A200130E10057
:1003FA000130E2002030E3003321CD01CE01CF01EC
:10040A00D00100305002031D142A00304F02031D90
:10041A00142AD9304E02031D142AF8304D0203184B
:10042A004A2A071C322A071C1B2A182A5D08F000D0
:10043A005E08F1005F08F2006008F300F00A031991
:10044A00F10A0319F20A0319F30A7008DD007108A8
:10045A00DE007208DF007308E0004D08F0004E0865
:10046A00F1004F08F2005008F300F00A0319F10AEC
:10047A000319F20A0319F30A7008CD007108CE00B5
:10048A007208CF007308D000062A5D08E1005E08F2
:10049A00E2005130E300C9200230E1000130E200FD
:1004AA005130E3003321DD01DE01DF01E001022AE0
:0204BA005D2AB9
:10051C00203084002A3083120313F0006330CB00A8
:08052C000230CC00732108002D
:1004C6004634523445345134553445344E3443342D
:0E04D60059342034283448347A342934003420
:1004E4004634523445345134553445344E3443340F
:1004F400593420344D344534543445345234003462
:10050400503449344334313436344634383437344F
:06051400363441340034CE
:02400E004A2F37
:00000001FF
