:100000006CEF03F00000000000EF00F000000000C3
:0A0010000000000000000000F3D71C
:10001C00086A096A100E0C6E013408360936045051
:10002C00085E0550D8A0053C095ED8B007D0045036
:10003C0008260550D8B0053C0926D8900036013664
:06004C000C2EEAD71200A1
:100052002C062C062CC001F02C060150000803E2ED
:1000620000000000F7D700000000000000000000C0
:0200720012007A
:100074000B6A0A6A096A086A0E6A0334083604506D
:10008400085E0550D8A0053C095E0650D8A0063C81
:100094000A5E0750D8A0073C0B5EE86AD8A0010EA0
:1000A4000E5E0336070E0C6E0334083609360A3624
:1000B4000B360E36045003A012D0085E0550D8A0AB
:1000C400053C095E0650D8A0063C0A5E0750D8A03D
:1000D400073C0B5EE86AD8A0010E0E5E11D008261C
:1000E4000550D8B0053C09260650D8B0063C0A266F
:1000F4000750D8B0073C0B26E86AD8B0010E0E268C
:1001040003360C2ED1D70234083609360A360B369C
:100114000E36045003A012D0085E0550D8A0053C4A
:10012400095E0650D8A0063C0A5E0750D8A0073CDA
:100134000B5EE86AD8A0010E0E5E11D008260550A9
:10014400D8B0053C09260650D8B0063C0A2607500C
:10015400D8B0073C0B26E86AD8B0010E0E2602364A
:10016400070E0C6E0234083609360A360B360E3684
:10017400045002A012D0085E0550D8A0053C095EC8
:100184000650D8A0063C0A5E0750D8A0073C0B5E78
:10019400E86AD8A0010E0E5E11D008260550D8B02A
:1001A400053C09260650D8B0063C0A260750D8B0AC
:1001B400073C0B26E86AD8B0010E0E2602360C2E38
:1001C400D1D70134083609360A360B360E360450B8
:1001D40002A012D0085E0550D8A0053C095E065066
:1001E400D8A0063C0A5E0750D8A0073C0B5EE86A1C
:1001F400D8A0010E0E5E11D008260550D8B0053CDB
:1002040009260650D8B0063C0A260750D8B0073C49
:100214000B26E86AD8B0010E0E260136070E0C6EC6
:100224000134083609360A360B360E36045001A05E
:1002340012D0085E0550D8A0053C095E0650D8A02F
:10024400063C0A5E0750D8A0073C0B5EE86AD8A0BB
:10025400010E0E5E11D008260550D8B0053C0926C3
:100264000650D8B0063C0A260750D8B0073C0B26E7
:10027400E86AD8B0010E0E2601360C2ED1D7003410
:10028400083609360A360B360E36045001A012D051
:10029400085E0550D8A0053C095E0650D8A0063C6F
:1002A4000A5E0750D8A0073C0B5EE86AD8A0010E8E
:1002B4000E5E11D008260550D8B0053C092606501C
:1002C400D8B0063C0A260750D8B0073C0B26E86A8B
:1002D400D8B0010E0E260036070E0C6E0034083618
:1002E40009360A360B360E36045000A012D0085ECA
:1002F4000550D8A0053C095E0650D8A0063C0A5E0D
:100304000750D8A0073C0B5EE86AD8A0010E0E5E29
:1003140011D008260550D8B0053C09260650D8B09F
:10032400063C0A260750D8B0073C0B26E86AD8B02A
:10033400010E0E2600360C2ED1D700B00ED004507C
:1003440008260550D8B0053C09260650D8B0063C0E
:0C0354000A260750D8B0073C0B26120008
:10036000A00E006E0F0E016E000E026E036E1200E4
:10037000220E0C6E086A096A0A6A0B6A0C06D8B467
:100380001FD0D8900B320A320932083203320232BF
:1003900001320032D8A0F2D70C06D8B409D00450EC
:1003A00008260550092206500A2207500B22EAD7D8
:1003B000045008260550092206500A2207500B2235
:0203C000120029
:1003C200CEDFE80E046E030E056E000E066E076E9B
:1003D200CEDF00C028F001C029F002C02AF003C01D
:1003E2002BF020C004F021C005F0000E066E076E4F
:1003F20040DE00C028F001C029F002C02AF003C08C
:100402002BF000C005F001C006F002C007F003C0E7
:1004120008F00832073206320532089E08320732E7
:1004220006320532089E05C000F006C001F007C082
:1004320002F008C003F00332023201320032039E9E
:1004420000C024F001C025F08ADF22C004F023C0DE
:1004520005F0000E066E076E8ADF24C009F025C083
:100462000AF0000E0B6E0C6E030E086E09C004F04B
:100472000AC005F00BC006F00CC007F0085007E0F8
:1004820004360490053606360736FF0FF8D7F1DD3D
:1004920000C028F001C029F002C02AF003C02BF0EE
:1004A2000A0E046E000E056E24C000F025C001F095
:1004B200B4DD00C024F001C025F0000E015C02E1B1
:1004C200030E005C01E241D015C0E9FF16C0EAFF4D
:1004D2002B50000808E12A50000805E129500008C5
:1004E20002E1285000082FE21750EF1225520DE0CA
:1004F200266A276A000E275C02E12550265C05E287
:100502002C6AA6DD264A272AF5D724C02CF0A0DDC6
:100512001850EF1625520DE0266A276A000E275C56
:1005220002E12550265C05E22C6A92DD264A272A42
:10053200F5D724C02CF08CDD010E285E000E295A5E
:0C0542002A5A2B5AC5D71850EF16120089
:10054E00BA0E206E020E216EFA0E226E000E236E71
:04055E0031DF120077
:10056200160E206E040E216E320E226E000E236EC7
:0405720027DF12006D
:10057600930E206E020E216EFA0E226E000E236E70
:040586001DDF120063
:10058A00700E206E030E216E320E226E000E236E46
:04059A0013DF120059
:0E059E00A50E0D6E0D2EFED7000000001200FF
:1005AC00100E206E030E216EFA0E226E000E236EBC
:0405BC0002DF120048
:1005C000260E206E050E216E320E226E000E236E58
:0405D000F8DE12003F
:1005D4001F6A1BC001F0010E006E015004E00036DA
:1005E4000090FF0FFBD700C01EF019C0E9FF1AC02E
:1005F400EAFF0050EE14016E0152010ED8A4000E61
:10060400006E1D50001A18E01C50000804E2C5DFFB
:10061400C4DF1C06F9D719C0E9FF1AC0EAFF1E504F
:10062400EE14016E0152010ED8A4000E006E1D508E
:0E063400001A02E0FF0E1F6E1FC000F0120041
:1006420019C015F01AC016F01BC001F0010E006EA1
:10065200015004E000360090FF0FFBD700C017F0F6
:10066200001E00C018F0120E1924E96E000E1A20A6
:10067200EA6E0050EF16120EE95E0050EF161200FD
:100682000900F5CFE6FF0006FBE10106F9E11200E1
:1006920071DF5CDF8ADF89DF6DDF58DF86DF85DFB0
:1006A20069DF54DF82DF66DF51DF7FDF7EDF62DFFB
:1006B2004DDF7BDF7ADF79DF49DF48DF5BDF120066
:1006C200090E196E1950000805E25EDF49DF77DF77
:0606D2001906F8D7120022
:1006D800F80E956E810E196E0F0E1A6E070E1B6EB0
:1006E800ACDF700E206E030E216EE80E226E030E34
:1006F800236E63DE830E196E0F0E1A6E070E1B6EC5
:10070800010E1C6E010E1D6E61DF005201E02FDF2D
:1007180083AE01D0FDD7830E196E0F0E1A6E060E2A
:100728001B6E010E1C6E010E1D6E50DF005201E0A3
:100738000ADF83AC01D0FDD7830E196E0F0E1A6E37
:10074800050E1B6E010E1C6E010E1D6E3FDF005262
:1007580001E028DF83AA01D0FDD7830E196E0F0EA2
:100768001A6E040E1B6E010E1C6E010E1D6E2EDF1E
:10077800005201E0A2DF83A801D0FDD7830E196ED5
:100788000F0E1A6E030E1B6E010E1C6E010E1D6EEF
:100798001DDF005201E079DF83A601D0FDD7AAD77B
:0207A800FFD779
:020000040030CA
:0E000000000C1F1EFF8381FF0FC00FE00F409A
:00000001FF
