:020000007D2859
:1000060083120313F1010830710203181528B51F76
:100016000E2807140F2807108714B50D3510871002
:10002600F10A062807150430FC00E430FD00FD0B3C
:0C0036001A28FC0B1A2800000711080013
:0E004200831203132B088A002A08820008008C
:1000500083120313F8010830FC00700DF80D7408CA
:10006000F80203183528F8070310F00DFC0B2D28B3
:02007000080086
:10007200831203132C0888002D08B50003200330D7
:10008200FB008A30FC005530FD00FD0B4628FC0BBE
:100092004628FB0B4628000000002F0888002E0887
:1000A200B50003200330FB008A30FC005530FD0010
:1000B200FD0B5928FC0B5928FB0B592800000000A6
:0200C200080034
:1000C40021208A110A128000840AAA0A0319AB0AA1
:0800D400F003031D622808007F
:1000DC000A3083120313F4003408F0002820780847
:0E00EC00F0007008203E84000008AD000800FF
:1000FA003F3083120313A0000630A1005B30A20038
:10010A004F30A3006630A4006D30A5007D30A600F4
:10011A000730A7007F30A8006F30A9008316860138
:10012A00870183128601831685018312850183164E
:10013A008801831288010130AC000230AF00FB3025
:10014A00B000F730B100B201B30180303306F000DD
:10015A0080307002031DB328143032020318BD2800
:10016A003208B4006E203920B20A0319B30AAA2849
:04017A00A828BE28CB
:02400E004A2F37
:00000001FF
