:02000000E32AF1
:10000800FF00030E8301A7000A08A8008A017008F0
:10001800A3007B08A2007C08A1007D08A0000B1C9F
:100028001B28D4227008A600F03086000B10230885
:10003800F0002208FB002108FC002008FD00280829
:0C0048008A00270E8300FF0E7F0E0900C7
:100054008312031387142130FD00FD0B2F28871012
:0A0064002130FD00FD0B34280800D8
:10006E008312031307140F308805F0302D05F000AE
:10007E00700888042A200F3088052D08F000F00D36
:10008E007010F00D7010F00D7010F00D7010F0304B
:0A009E00F005700888042A2008000D
:0E00A8008312031325088A0024088200080032
:1000B6008312031307100F308805F0302D05F0006A
:1000C600700888042A200F3088052D08F000F00DEE
:1000D6007010F00D7010F00D7010F00D7010F03003
:0A00E600F005700888042A200800C5
:1000F000063083120313F1002B08F0007108031976
:100100008528F00D7010FF3E7F282C08F007803006
:080110007004AD005B20080043
:10011800831203132B08A4002C08A50054208A116D
:100128000A12F00070080319A6282B08A4002C084E
:10013800A50054208A110A12AD003720AB0A031912
:06014800AC0A8C2808003F
:10014E0083120313AB01AC0178202908AB002A08F7
:06015E00AC008C2008003B
:10016400013083120313AD005B200330FC00973091
:10017400FD00FD0BBB28FC0BBB28000000000800A1
:10018400013083120313AB00AC0178202908AB00C3
:080194002A08AC008C200800D1
:10019C00831203130610861406158615061AEA2810
:1001AC000230FB004530FC00A930FD00FD0BDC28C3
:1001BC00FC0BDC28FB0BDC2800000000061AE728EF
:1001CC00E4283130F000422A861A00290230FB0064
:1001DC004530FC00A930FD00FD0BF228FC0BF22889
:1001EC00FB0BF22800000000861AFD28FA28343098
:1001FC00F000422A061B16290230FB004530FC0099
:10020C00A930FD00FD0B0829FC0B0829FB0B082964
:10021C0000000000061B132910293730F000422A79
:10022C00861B2C290230FB004530FC00A930FD0058
:10023C00FD0B1E29FC0B1E29FB0B1E2900000000C8
:10024C00861B292926294330F000422A06148610E1
:10025C0006158615061A46290230FB004530FC00AF
:10026C00A930FD00FD0B3829FC0B3829FB0B382974
:10027C0000000000061A432940293230F000422ABF
:10028C00861A5C290230FB004530FC00A930FD00C9
:10029C00FD0B4E29FC0B4E29FB0B4E2900000000D8
:1002AC00861A592956293530F000422A061B722924
:1002BC000230FB004530FC00A930FD00FD0B642929
:1002CC00FC0B6429FB0B642900000000061B6F2942
:1002DC006C293830F000422A861B88290230FB003A
:1002EC004530FC00A930FD00FD0B7A29FC0B7A2966
:1002FC00FB0B7A2900000000861B852982293030EF
:10030C00F000422A0614861406118615061AA22934
:10031C000230FB004530FC00A930FD00FD0B942998
:10032C00FC0B9429FB0B942900000000061A9F2952
:10033C009C293330F000422A861AB8290230FB007F
:10034C004530FC00A930FD00FD0BAA29FC0BAA29A5
:10035C00FB0BAA2900000000861AB529B2293630F9
:10036C00F000422A061BCE290230FB004530FC006F
:10037C00A930FD00FD0BC029FC0BC029FB0BC029CB
:10038C0000000000061BCB29C8293930F000422A96
:10039C00861BE4290230FB004530FC00A930FD002F
:1003AC00FD0BD629FC0BD629FB0BD629000000002F
:1003BC00861BE129DE293D30F000422A0614861402
:1003CC0006158611061AFE290230FB004530FC008A
:1003DC00A930FD00FD0BF029FC0BF029FB0BF029DB
:1003EC0000000000061AFB29F8292D30F000422AE3
:1003FC00861A142A0230FB004530FC00A930FD009F
:10040C00FD0B062AFC0B062AFB0B062A000000003B
:10041C00861A112A0E2A5830F000422A061B2A2A64
:10042C000230FB004530FC00A930FD00FD0B1C2AFE
:10043C00FC0B1C2AFB0B1C2A00000000061B272AA5
:10044C00242A2F30F000422A861B402A0230FB005F
:10045C004530FC00A930FD00FD0B322AFC0B322A82
:10046C00FB0B322A00000000861B3D2A3A2A2B3057
:0A047C00F000422A6E30F000080084
:1004860054208A110A128000840AA40A0319A50AB4
:08049600F003031D432A0800D6
:10049E00831203138601F030831686007F308105A8
:0204AE00080044
:1004B000B2200A30A9000330AA00A720F930A90011
:1004C0000230AA00C2200630FB001330FC00AD3021
:1004D000FD00FD0B692AFC0B692AFB0B692A000051
:0404E0000000080010
:1004E40083120313871007103430FC00F130FD0031
:1004F400FD0B7A2AFC0B7A2A000000000F308805D5
:10050400303088042A200830FC00C930FD00FD0B7F
:10051400892AFC0B892A000000000F30880530303E
:1005240088042A206330FD00FD0B962A0000000099
:100534000F308805303088042A200330FC009730BF
:10054400FD00FD0BA32AFC0BA32A000000000F30C2
:10055400880588162A200330FC009730FD00FD0B27
:10056400B12AFC0BB12A000000002830AD005B204A
:100574000C30AD005B200130AD005B200630AD00D7
:040584005B200800F0
:10058800F030831603138600870189010130850046
:1005980088018312850186018701F03086000800F2
:1005A8006E3083120313AE002E086E3A031DE02A44
:0E05B800CE207008AE00D82A2E08F0000800F1
:1005C600C42272225822B2201A30A9000330AA008F
:1005D600A72088308B004F228312AB010A30AC0073
:0C05E60078202608AD003720EF2AF82A04
:1005F2002A342A34203420344D3445344C344134A6
:1006020042342D3442344434203420342A342A34BF
:020612000034B2
:100614002A34203434345834343420344B3465345C
:100624007934203450346134643420342A3400342E
:0C0634004B346534793420343D340034FC
:02400E004A2F37
:00000001FF
