:02000000242DAD
:0400060000000800EE
:10000A00103083120313FD00FD0B092800000800BD
:10001A00083083120313FC002330FD00FD0B132864
:06002A00FC0B1328080086
:0E003000F201F101F001F801F30100300800C7
:10003E00FB14FB1F2928FF30F300F200F100F00043
:08004E00FA0DF20CFF3008006E
:1000560083120313E71B3128861132288615671B86
:100066003628061137280615E71A3B2886103C283D
:100076008614671A40280610412806145718452882
:10008600061646280612861603208612E7194D28FC
:1000960086114E288615671952280611532806150B
:1000A600E718572886105828861467185C28061003
:1000B6005D28061457186128061662280612861649
:1000C60003208612571C69280D206A28052008007F
:1000D6007B15FB1F75280130F300F201F101F001D9
:0800E600FA0DF20CFF300800D6
:0800EE00FA1FF21300300800B4
:1000F60083120313F8010830FC00700DF80D740824
:10010600F80203188828F8070310F00DFC0B802866
:020116000800DF
:0E011800073083120313FD00FD0B9028080032
:1001260083120313FB017308031D77080319EA28DA
:1001360072087606FA007708F3077E30031CA728B4
:10014600F3020318ED28AA28F302031CF02872080C
:10015600F8007108FC007008FD00F817F617031088
:10016600F201F101F0011830A0007D1CC4287408CA
:10017600F00775080318750FF10776080318760F50
:10018600F207F20CF10CF00CF80CFC0CFD0C031051
:10019600A00BB828F21BD428F80DF00DF10DF20DC6
:1001A600F3037B1B701CE628F81FE628F00A0319E8
:1001B600F10A0319F20A031DE628F20CF10CF00C01
:1001C600F30A0319ED28FA1FF2130030F228013062
:1001D6001820F22802301F20F22804306B2000007D
:0201E60008000F
:1001E8008312031357106508E7002B2057140800E3
:1001F800831203136508F2007208F100F20A660818
:10020800F000E60A700884000008F0007108840015
:100218007008800071088400000803191429002957
:060228006508F00008006B
:10022E00A0017208031D2C297108F2007008F1005C
:10023E00F001A0157208031D2C297108F200F101BE
:10024E00A0112016720803193A292008F302031D83
:10025E00031C3E290310F21B4229F00DF10DF20D85
:10026E00F30B32293E290130FC00182045290230BB
:0E027E00FC006B2045290430FC0077200800AE
:10028C007B14FB1F5129F201FA1FFF30F200F10021
:0A029C00F000FA0DF20CFF3008002C
:0E02A6008312031342088A00410882000800F8
:1002B40083120313FA017308031D7A147708031DCC
:1002C400FA147A080319A629033A031971297A182A
:1002D4006E29F61FA429A229F21FA229A4297208B3
:1002E4008039FA00F21376088039F6137A06031976
:1002F4007F297A080319A229A4297708730203190C
:100304008629031C9A299E297608720203198D29CD
:10031400031C9A299E297508710203199429031C48
:100324009A299E29740870020319A62903189E2984
:10033400FA080319A429A229FA080319A229A4294D
:100344000314080003100800031403150800080030
:1003540083120313FB0173080319E7297208FA00D7
:10036400F2178E30F302F31FEA29F309F30A083077
:100374007302031CCD29F300F10D7208F100F201A0
:1003840008307302031CCD29F300F10DF101730849
:10039400031D0310D52973080319D5290310F20C82
:1003A400F10CF30BD0297B1B711CDF29031CDF2903
:1003B400F10A0319F20AF21BF629FA1FF929F209C4
:1003C400F109F10A0319F20AF929F201F101F929F3
:1003D4007B14FB1FFC29F201FA1FFC29FF30F200F9
:1003E400F100FA0DF20CFC290130FC00FE2900306A
:1003F400FC00FE29FF30FC00FC080319022A4621F8
:0A0404007108F0007208F100080012
:10040E00192A803083120313D8002C2AC030D8004A
:10041E002C2A9430D8002C2AD430D8002C2A8030A4
:10042E00D8002C2A831203135808013A0319082AFC
:10043E005808023A03190D2A5808033A0319102ACC
:10044E005808043A0319132A162A5903F0005808BB
:10045E00F0077008D80057147008E7002B205710CB
:0A046E005A08E7002B20571408007D
:10047800831203137008F8007108F000F101F2010B
:10048800F301FB01FC019630F300FA01F01F522A38
:10049800F809F009F80A0319F00AFA177008F100C8
:0C04A8007808F000F801F20117210800AC
:1004B400831203139F01C0309F0483161F179F17D5
:1004C40083125808F000F00D7010F00D7010F00D4C
:1004D400701070089F041F148C201F151F1D742A90
:1004E4000000702A1F101E08F100F00183161E0878
:0804F400F0040030F1040800DF
:1004FC0083120313E301E4015808DF005908E000FC
:10050C005A08E1005B08E2006208FF3A031D982AD2
:10051C006108FF3A031D982A6008FF3A031D982AC8
:10052C005F08FF3A031DA22A5C08E5002B30E600A9
:10053C00FC200330F000772C0130DD00E11FB12AE4
:10054C0080306106F0007008E100DD0A5C08840070
:10055C002D308000DC0A0030F0006206031DC02A3A
:10056C0070086106031DC02A70086006031DC02AAE
:10057C005F08003A031DC92A5C08E5003330E60029
:10058C00FC20F001772C6208FF3A031DD72A610882
:10059C00003A031DD72A6008003A031DD72A5F08CA
:1005AC00003A031DE12A5C08E5002F30E600FC2030
:1005BC005D08F000772C0030F4000030F5000030BE
:1005CC00F6007F30F7005F08F0006008F10061086A
:1005DC00F2006208F3005A21013003180030F000D9
:1005EC0070080319142B5F08F0006008F100610813
:1005FC00F2006208F3000030F4000030F500203007
:10060C00F6008230F70093207008DF007108E000DC
:10061C007208E1007308E200E403E12A0030F40000
:10062C000030F5002030F6008230F7005F08F00053
:10063C006008F1006108F2006208F3005A210130F1
:10064C00031C0030F00070080319472B5F08F00002
:10065C006008F1006108F2006208F300CD30F4008C
:10066C00CC30F5004C30F6007B30F700932070084E
:10067C00DF007108E0007208E1007308E200E40A90
:10068C00142BFF305F05F800FF306005F9007F3058
:10069C006105FA0000306205FB007808F400790867
:1006AC00F5007A08F6007B08F700F40DF50DF60D51
:1006BC00F70D741000305F05F00000306005F1009C
:1006CC0000306105F200FF306205F3007008DF00B6
:1006DC007108E0007208E1007308E20074085F041E
:1006EC00F00075086004F10076086104F2007708E8
:1006FC006204F3007008DF007108E0007208E1008A
:10070C007308E2007F306202F0007008DE000130F6
:10071C00E2007008F4005F08F0006008F100610866
:10072C00F2006208F30074080319A32BF00DF10D0D
:10073C00F20DF30D7010FF3E9A2B7008DF0071085C
:10074C00E0007208E1007308E2006208303EF0003D
:10075C005C08840070088000DC0A80306406F000BD
:10076C008030013A7002031CC42B8030063AF00032
:10077C00803064067002031CC42BCB2B5C088400F5
:10078C002E308000DC0A0130E3000630DE005E080B
:10079C00003A0319292CE2015F08F0006008F1000F
:1007AC006108F2006208F300F00DF10DF20DF30D8B
:1007BC007010F00DF10DF20DF30D70105F08F007D5
:1007CC0060080318600FF10761080318610FF20746
:1007DC0062080318620FF3077008DF007108E0006D
:1007EC007208E1007308E2005F08F0006008F10095
:1007FC006108F2006208F300F00DF10DF20DF30D3B
:10080C0070107008DF007108E0007208E1007308D6
:10081C00E2006208303EF0005C0884007008800042
:10082C00DC0A6308003A031D272CE4036408003A31
:10083C00031D272C5C0884002E308000DC0A01305C
:10084C00E300DE03CD2BFF305C0784000008303A58
:10085C00031D322CDC03292CFF305C0784000008BC
:10086C002E3A031D3A2CDC036408003A0319732C4E
:10087C005C08840065308000DC0A80306406F0007F
:10088C008030003A70020318532C5C0884002D3021
:10089C008000DC0A6408003CE4006408DE006408A4
:1008AC00093C0318652C0A30F4005E08F0007B202C
:1008BC003030F0075C08840070088000DC0A0A30D5
:1008CC00F4005E08F0007B207808F0003030F00770
:1008DC005C08840070088000DC0A5C0884008001DD
:0408EC00F00108000F
:1008F000831603138612061206108610061186113F
:1009000083128612061286110611861006100D201B
:100910000D200D20861406148616032086120D2045
:100920008616032086120D208616032086120D20BF
:1009300006108616032086120D20861603208612C6
:10094000861086158616032086120D208611061441
:1009500086160320861206108616032086120D20A6
:1009600086160320861206148616032086120D2092
:1009700006108616032086128615061586140614A0
:0C0980008616032086120D205714080074
:10098C0053218A110A128000840AC10A0319C20A6F
:08099C00F003031DC62C080046
:1009A400FF3083120313C300FF30C400FF30C500BF
:1009B400FF309F01C0309F0483161F179F178312B7
:0409C4001F140800F4
:1009C800F62C803083120313D800092DC030D800CC
:1009D800092D9430D800092DD430D800092D803045
:1009E800D800092D831203135808013A0319E52C7E
:1009F8005808023A0319EA2C5808033A0319ED2C4F
:100A08005808043A0319F02CF32C5903F00058083D
:100A1800F0077008D8007008E7002B205710DB019A
:100A28005B085A07840000080319222D5B085A073F
:100A380084000008E500F420DB0A142D5714080090
:100A4800BC25831603130514D22478240C30E70040
:100A58002B200130E7002B200130D8000130D900CD
:100A68002130DA00E4240B30FB002630FC005D3036
:100A7800FD00FD0B3D2DFC0B3D2DFB0B3D2D00001E
:100A880000000130E7002B200130D8000130D900E8
:100A98003530DA00E424D8015A2270088312D500D0
:100AA8007108D6003C222330F400DB30F5007930A1
:100AB800F6007D30F7009320AA217008D500710850
:100AC800D6003C227008D8007108D9007208DA00F4
:100AD8007308DB004630DC007E220230D800093083
:100AE800D9002730DA0007220230D8000A30D900AE
:100AF8002930DA00E4240230D8000130D900463029
:100B0800DA00E4240330FB008A30FC005530FD0095
:100B1800FD0B8C2DFC0B8C2DFB0B8C2D000000008D
:040B28004F2D952D8B
:100B780021308400203083120313F0009B30C10021
:080B88000530C200C62408007C
:100B36005334613472346F34773461347234003430
:040B46004334003400
:080B4A004E3461344E340034D6
:080B520049344E3446340034EE
:040B5A0030340034FF
:100B5E00743465346D347034653472346134743485
:080B6E00753472346534003463
:02400E004A2F37
:00000001FF
