:020000001628C0
:0E0006008316031321088A00200882000800D8
:1000140003208A110A128000840AA00A0319A10A83
:08002400F003031D0A28080087
:10002C00BC20831603138601870183128601870186
:10003C008316A20180302206F00080300A3A70024A
:10004C0003186428A30180302306F0008030143A92
:10005C007002031862280130A400A5018030250627
:10006C00F0008030083A70020318602824098312CB
:10007C0087000330F10083162208F0007108031981
:10008C004B28F00D7010FF3E45282030F007250856
:10009C00700784000008831286008316A40D2410B8
:1000AC000730FC007D30FD00FD0B5A28FC0B5A2854
:1000BC00A50A3428A30A2928A20A20281E28652864
:1001780020308400503083120313F0006B30831654
:0A018800A0000030A1000A200800CA
:1000D600003400340034FC34123412341234FC344C
:1000E600003400340034FE349234923492346C344A
:1000F6000034003400347C348234823482348234D6
:10010600003400340034FE348234823482347C3449
:100116000034003400347C34923492349234923475
:10012600003400340034FC341234123412340234F5
:100136000034003400347C34823492349234723485
:10014600003400340034FE34103410341034FE34DD
:1001560000340034003400348234FE3482340034F7
:100166000034003400344234823482347E34023423
:02400E004A2F37
:00000001FF
