:020000001628C0
:0E0006008312031339088A00380882000800AC
:1000140003208A110A128000840AB80A0319B90A53
:08002400F003031D0A28080087
:10002C003F3083120313A000A1014830A200A301AA
:10003C004830A400A5014830A600A7013F30A80015
:10004C00A901AA01AB01AC01AD01AE01AF010130B8
:10005C00B0000230B1000430B2000830B3001030F0
:10006C00B4002030B5004030B6008030B7008316A5
:10007C0086018701F301F40180307406F0008030B2
:10008C007002031D4B280830730203187628831264
:10009C0087010330FC009730FD00FD0B5328FC0B4F
:1000AC005328000000007308F0007408F100F00DF4
:1000BC00F10D70107008203E840000098600730852
:1000CC00303E8400000887000730FC007D30FD00C6
:1000DC00FD0B6E28FC0B6E28F30A0319F40A422858
:0400EC004028772809
:02400E004A2F37
:00000001FF
