:020000001628C0
:0E0006008312031321088A00200882000800DC
:1000140003208A110A128000840AA00A0319A10A83
:08002400F003031D0A28080087
:10002C008316031386010130831286000630FB0011
:10003C001330FC00AD30FD00FD0B2228FC0B2228F8
:10004C00FB0B2228000000000730F2000030F30008
:10005C008030F000803073067002031D3728720860
:10006C00003C0318532883120608F000F00D7010A2
:10007C00700886000630FB001330FC00AD30FD002C
:10008C00FD0B4628FC0B4628FB0B46280000000005
:0E009C000130F202031CF3032E281928542809
:02400E004A2F37
:00000001FF
