:020000001628C0
:0E000600831203132B088A002A0882000800C8
:1000140003208A110A128000840AAA0A0319AB0A6F
:08002400F003031D0A28080087
:10002C00C03083120313A000F930A100A430A20049
:10003C00B030A3009930A4009230A5008230A60005
:10004C00F830A7008030A8009030A90083168601F4
:10005C000330870083128601071845288230FC0084
:10006C00DD30FD00FD0B3828FC0B382800000000AB
:10007C00F10A09307102031C45280930F100871878
:10008C0057288230FC00DD30FD00FD0B4B28FC0BAB
:10009C004B2800000000F1037108093A031D572892
:1000AC00F1017108203E8400000886000630FB0038
:1000BC001330FC00AD30FD00FD0B6228FC0B6228F8
:0C00CC00FB0B62280000000032286B28AB
:02400E004A2F37
:00000001FF
