:0200000049298C
:100006008312031388142130FD00FD0B0828881085
:0A0016002130FD00FD0B0D2808004D
:100020008312031308100F308805F0302805F00004
:100030007008880403200F3088052808F000F00DB0
:100040007010F00D7010F00D7010F00D7010F03099
:0A005000F005700888040320080082
:10005A008312031308140F308805F0302805F000C6
:10006A007008880403200F3088052808F000F00D76
:10007A007010F00D7010F00D7010F00D7010F0305F
:0A008A00F005700888040320080048
:0E0094008312031323088A002208820008004A
:1000A200831203132608A2002708A3004A208A11FC
:1000B2000A12F000700803196B282608A20027080C
:1000C200A3004A208A110A12A8002D20A60A0319A9
:0600D200A70A51280800F6
:1000D800063083120313F1002608F0007108031993
:1000E8007928F00D7010FF3E73282708F00780303C
:0800F8007004A80010200800AC
:1001000083120313A601A7016C202408A60025086A
:06011000A70051200800C9
:10011600013083120313A80010200330FC0097302F
:10012600FD00FD0B9428FC0B94280000000008003D
:10013600013083120313A600A7016C202408A60031
:080146002508A7005120080064
:10014E0083120313F801F9011030FC00710DF80D44
:10015E00F90D7408F8027508031C750FF9020318DF
:10016E00BF287408F80775080318750FF9070310F0
:0A017E00F00DF10DFC0BAD28080098
:100188008B209630A4000130A50080208530A40083
:100198000130A5009B200630FB001330FC00AD3079
:1001A800FD00FD0BD528FC0BD528FB0BD52800003E
:0401B800000008003B
:1001BC0083120313881008103430FC00F130FD005A
:1001CC00FD0BE628FC0BE628000000000F3088052C
:1001DC003030880403200830FC00C930FD00FD0BD2
:1001EC00F528FC0BF528000000000F308805303096
:1001FC00880403206330FD00FD0B02290000000081
:10020C000F3088053030880403200330FC00973011
:10021C00FD00FD0B0F29FC0B0F29000000000F3017
:10022C008805881603200330FC009730FD00FD0B79
:10023C001D29FC0B1D29000000002830A8001020EF
:10024C000C30A80010200130A80010200630A800A7
:04025C001020080066
:100260008316031386018701890101308500880107
:0A0270008312850186018701080052
:10027A004A208A110A128000840AA20A0319A30AD0
:08028A00F003031D3D290800EB
:10029200203083120313A000A1013021DE20C420EC
:1002A2008B20A730A4000130A50080200130A600D9
:1002B2000A30A7006C200A30F4000030F500200854
:1002C200F0002108F100A7200A30F4000030F50008
:1002D200A7207808F0007908F10030307007A800F4
:1002E2002D200A30F4000030F5002008F00021082B
:1002F200F100A7207808F0007908F100303070078B
:08030200A8002D2083298429A5
:10030A002A342A34203420344D3445344C34413490
:10031A0042342D3442344434203420342A342A34AA
:02032A0000349D
:10032C002A342034483465346C346C346F342034C3
:10033C00203457346F3472346C34643420342A349F
:02034C0000347B
:10034E00543465346D3470342E34203443342034B8
:04035E003D340034F6
:02400E004A2F37
:00000001FF
