:020000001628C0
:0E0006008312031321088A00200882000800DC
:1000140003208A110A128000840AA00A0319A10A83
:08002400F003031D0A28080087
:10002C003F3083120313A2000630A3005B30A40000
:10003C004F30A5006630A6006D30A7007D30A800BB
:10004C000730A9007F30AA006F30AB00AC018801EB
:10005C008316880183128901831689150F168F1652
:10006C000F1783128919432889193D283A28AC0A9D
:10007C002C080A3A031D4328AC012C08223E8400AC
:08008C0000088800372849280C
:04400E00D42F0007A4
:00000001FF
