:02000000DE2AF6
:10000600103083120313FD00FD0B072800000800C3
:10001600083083120313FC002330FD00FD0B11286A
:06002600FC0B112808008C
:04002C0000000800C8
:1000300083120313C91B1E2886131F288617491B0A
:100040002328061324280617C91A282886122928C7
:100050008616491A2D2806122E2806163918322817
:10006000071433280710871416208710C9193A2857
:1000700086133B28861749193F2806134028061780
:10008000C918442886124528861649184928061298
:100090004A28061639184E2807144F2807108714C7
:1000A00016208710391C56280B20572803200800DB
:1000B0008312031339104808C900182039140800A6
:1000C0007228803083120313C4008528C030C40016
:1000D00085289430C4008528D430C4008528803019
:1000E000C4008528831203134408013A03196128C8
:1000F0004408023A031966284408033A0319692898
:100100004408043A03196C286F284503F00044089A
:10011000F0077008C4007008C90018203910C70122
:10012000470846078400000803199E284708460729
:1001300084000008C8005820C70A90283914080015
:10014000A53083120313FD00FD0BA428000000005E
:020150000800A5
:10015200193083120313FD00FD0BAD2800000000CF
:02016200080093
:1001640083120313F801F9011030FC00710DF80D2E
:10017400F90D7408F8027508031C750FF9020318C9
:10018400CA287408F80775080318750FF9070310CF
:0A019400F00DF10DFC0BB828080077
:10019E0083120313F8010830FC00700DF80D74087B
:1001AE00F8020318DC28F8070310F00DFC0BD42816
:0201BE00080037
:0E01C000831203133D088A003C0882000800E9
:1001CE0083120313FB01FA01F9018030F800F10CE0
:1001DE00F00C031CFB287408F90775080318750F3B
:1001EE00FA070318FB0A0310F01F03297408FA0715
:1001FE0075080318750FFB07FB0CFA0CF90CF80CBD
:10020E00031CEE287B08F3007A08F2007908F1004F
:06021E007808F000080062
:1002240083120313BF1F1F29310884002D3080005F
:10023400BE09BF09BE0A0319BF0A3E08F0003F0801
:10024400F100F10CF00CF113F10CF00CF113F10CC2
:10025400F00CF113F10CF00CF1137008C0006430D1
:10026400F400CF207008031945293108C300643015
:10027400F4004008F000CF203030F0074308840039
:100284007008800049293108840030308000310A28
:10029400C3000A30F4004008F000CF200A30F40014
:1002A400CF207808F0003030F0074308840070084D
:1002B400800002303107C3000A30F4004008F00027
:1002C400CF207808F0003030F0074308840070082D
:1002D40080003E08C1003F08C2000F303E05F00018
:1002E4003F08F1000030F1057008C1007108C20038
:1002F4007130F4000230F500E7207008C100710885
:10030400C20004303107C300E830F4000330F500C4
:10031400B2203030F00743088400700880000530B4
:100324003107C3006430F4000030F5004108F000E8
:100334004208F100B2200A30F4000030F500B22087
:100344007808F0007908F1003030F00743088400A1
:10035400700880000230C4000530C5003108C600B2
:04036400602008000D
:10036800831203133F08F1000130F00071080319EC
:10037800C129F00D7010FF3EBB297008C100F009BB
:100388003E08840070088005841770088005A02046
:10039800410880048413A92041080005C0004008D2
:1003A800003A013003190030C000A0204008F000D6
:0203B80008003B
:1003BA00831203133F08F1000130F000710803199A
:1003CA00EA29F00D7010FF3EE4297008C300F00915
:1003DA007008C2003E088400700880058417C101B5
:1003EA004108073C031C0F2A4108F0004008F100AD
:1003FA0070080319042AF10CF113FF3EFE29420882
:10040A008005711C0A2A43088004A9204308800435
:0C041A00C10AF529841303200320080008
:10042600831203133F08F1000130F000710803192D
:10043600202AF00D7010FF3E1A2A7008C3007009BA
:10044600C2003E088400C101C0014008073C031CED
:100456004C2A420880058417420880051620430866
:1004660080041620841343080005F0000319482A67
:100476004008F1000130F00071080319462AF00D1A
:100486007010FF3E402A7008C10403200320C00AF2
:08049600282A4108F0000800CB
:10049E00612A803083120313BE00742AC030BE005E
:1004AE00742A9430BE00742AD430BE00742A803070
:1004BE00BE00742A831203133E08013A0319502A10
:1004CE003E08023A0319552A3E08033A0319582AE0
:1004DE003E08043A03195B2A5E2A3F03F0003E08E9
:1004EE00F0077008BE0039147008C90018203910C2
:0A04FE004008C90018203914080056
:10050800E0208A110A128000840ABC0A0319BD0A75
:08051800F003031D842A080012
:10052000831603138710071006128612061386130C
:1005300083128710071086130613861206120B20EB
:100540000B200B20861606168714162087100B200A
:100550008714162087100B208714162087100B2075
:1005600006128714162087100B2087141620871078
:10057000861286178714162087100B2086130616FE
:1005800087141620871006128714162087100B2058
:1005900087141620871006168714162087100B2044
:1005A0000612871416208710861706178616061659
:0C05B0008714162087100B203914080057
:1005BC00203083120313A0005430A1006530A20038
:1005CC006D30A3007030A4006530A5007230A60019
:1005DC006130A7007430A8007530A9007230AA00F1
:1005EC006530AB003A30AC002030AD002030AE00AE
:1005FC002030AF00B0013230B1003030B2003030BA
:10060C00B3003030B4002E30B5003030B60030308E
:10061C00B700B80190220130C90018200C30C90075
:10062C0018200130C4000130C5002030C600602005
:10063C000230BE000D30BF00DF30C0004F22023050
:10064C00BE000E30BF004330C0004F220630BE004B
:10065C00BF01B4210630BE00BF01CC30C000DD218B
:10066C000630BE00BF014430C000DD212730FD0044
:10067C00FD0B3E2B000000000630BE00BF01B42174
:10068C000630BE00BF01CC30C000DD210630BE00FC
:10069C00BF01BE30C000DD210330FB000830FC0080
:1006AC007730FD00FD0B582BFC0B582BFB0B582BFC
:1006BC000630BE00BF0113227008BA00BB01063021
:1006CC00BE00BF0113227008F300F2013A08720752
:1006DC00F00073080318013E3B07F1007008BA00E4
:1006EC007108BB007008BE007108BF0012210330F6
:1006FC00FB008A30FC005530FD00FD0B832BFC0BFE
:0E070C00832BFB0B832B000000002C2B8C2B6F
:02400E004A2F37
:00000001FF
