:060000000A128A11E92F2B
:100E8E00F030831603138600FF308312031386009F
:100E9E0083160313811308007E088A007F088200E0
:100EAE0053270A128A118000840A04087D0603194A
:100EBE000034FF0A0319FE0A572F07347F346F34AC
:100ECE00713466346D347D34793406345B344F348A
:100EDE005E3477343F347C343934FE34FD34FB34A5
:100EEE00F7348312031387018316031387010A1243
:100EFE008A1147270A128A110A128A1195270A1295
:100F0E008A118312031387000D30F700FB30F600B1
:100F1E00F60B8F2FF70B8F2F942F832FF5010430A5
:100F2E0075020318B82F7508303E8400831300082D
:100F3E008312031386000608F039F03A0319B02F16
:100F4E007508F000F1017008F8007108F9007C14C2
:100F5E00B82F0130F0007008F50704307502031C3D
:100F6E009A2F83120313061ABF2FFA01FB01CD2FFE
:100F7E00861AC32F0130CA2F061BC72F0230CA2F65
:100F8E00861BCD2F0330FA000030FB007C1C0800BE
:100F9E007A08F00002300310F00DFF3E031DD22F31
:100FAE0020307007F10078087107F2007208840093
:100FBE0083130008F300F4017308B4007408B5003D
:100FCE0034080800FC01F801F901FA01FB01B40133
:100FDE00B50183133430FD000730FE006430FF008E
:100FEE00203084000A128A11572783010A128A11AF
:020FFE00782F4A
:02400E007AFF37
:00000001FF
